{
    "contractName": "Malaysia",
    "abi": [
        {
            "constant": true,
            "inputs": [
                {
                    "name": "",
                    "type": "address"
                }
            ],
            "name": "states",
            "outputs": [
                {
                    "name": "name",
                    "type": "string"
                },
                {
                    "name": "kings_name",
                    "type": "string"
                }
            ],
            "payable": false,
            "stateMutability": "view",
            "type": "function"
        },
        {
            "constant": true,
            "inputs": [
                {
                    "name": "",
                    "type": "address"
                }
            ],
            "name": "districts",
            "outputs": [
                {
                    "name": "name",
                    "type": "string"
                }
            ],
            "payable": false,
            "stateMutability": "view",
            "type": "function"
        },
        {
            "constant": true,
            "inputs": [],
            "name": "owner",
            "outputs": [
                {
                    "name": "",
                    "type": "address"
                }
            ],
            "payable": false,
            "stateMutability": "view",
            "type": "function"
        },
        {
            "inputs": [],
            "payable": false,
            "stateMutability": "nonpayable",
            "type": "constructor"
        },
        {
            "constant": false,
            "inputs": [
                {
                    "name": "_state_address",
                    "type": "address"
                },
                {
                    "name": "_name",
                    "type": "string"
                },
                {
                    "name": "_kings_name",
                    "type": "string"
                }
            ],
            "name": "addState",
            "outputs": [],
            "payable": false,
            "stateMutability": "nonpayable",
            "type": "function"
        },
        {
            "constant": false,
            "inputs": [
                {
                    "name": "_district_address",
                    "type": "address"
                },
                {
                    "name": "_state_address",
                    "type": "address"
                },
                {
                    "name": "_name",
                    "type": "string"
                }
            ],
            "name": "addDistrict",
            "outputs": [],
            "payable": false,
            "stateMutability": "nonpayable",
            "type": "function"
        },
        {
            "constant": true,
            "inputs": [
                {
                    "name": "_state_address",
                    "type": "address"
                }
            ],
            "name": "getDestrictLength",
            "outputs": [
                {
                    "name": "",
                    "type": "uint256"
                }
            ],
            "payable": false,
            "stateMutability": "view",
            "type": "function"
        },
        {
            "constant": true,
            "inputs": [
                {
                    "name": "_state_address",
                    "type": "address"
                },
                {
                    "name": "_index",
                    "type": "uint256"
                }
            ],
            "name": "getDestrict",
            "outputs": [
                {
                    "name": "",
                    "type": "address"
                }
            ],
            "payable": false,
            "stateMutability": "view",
            "type": "function"
        }
    ],
    "bytecode": "0x608060405234801561001057600080fd5b50336000806101000a81548173ffffffffffffffffffffffffffffffffffffffff021916908373ffffffffffffffffffffffffffffffffffffffff160217905550610bd2806100606000396000f300608060405260043610610083576000357c0100000000000000000000000000000000000000000000000000000000900463ffffffff16806302a22337146100885780630b763379146101b057806365c669af1461026c57806369368aed146102c35780638da5cb5b1461036c578063a7edf8ef146103c3578063aa3f75b614610492575b600080fd5b34801561009457600080fd5b506100c9600480360381019080803573ffffffffffffffffffffffffffffffffffffffff16906020019092919050505061051f565b604051808060200180602001838103835285818151815260200191508051906020019080838360005b8381101561010d5780820151818401526020810190506100f2565b50505050905090810190601f16801561013a5780820380516001836020036101000a031916815260200191505b50838103825284818151815260200191508051906020019080838360005b83811015610173578082015181840152602081019050610158565b50505050905090810190601f1680156101a05780820380516001836020036101000a031916815260200191505b5094505050505060405180910390f35b3480156101bc57600080fd5b506101f1600480360381019080803573ffffffffffffffffffffffffffffffffffffffff169060200190929190505050610673565b6040518080602001828103825283818151815260200191508051906020019080838360005b83811015610231578082015181840152602081019050610216565b50505050905090810190601f16801561025e5780820380516001836020036101000a031916815260200191505b509250505060405180910390f35b34801561027857600080fd5b506102ad600480360381019080803573ffffffffffffffffffffffffffffffffffffffff169060200190929190505050610729565b6040518082815260200191505060405180910390f35b3480156102cf57600080fd5b5061036a600480360381019080803573ffffffffffffffffffffffffffffffffffffffff169060200190929190803573ffffffffffffffffffffffffffffffffffffffff169060200190929190803590602001908201803590602001908080601f0160208091040260200160405190810160405280939291908181526020018383808284378201915050505050509192919290505050610778565b005b34801561037857600080fd5b5061038161089b565b604051808273ffffffffffffffffffffffffffffffffffffffff1673ffffffffffffffffffffffffffffffffffffffff16815260200191505060405180910390f35b3480156103cf57600080fd5b50610490600480360381019080803573ffffffffffffffffffffffffffffffffffffffff169060200190929190803590602001908201803590602001908080601f0160208091040260200160405190810160405280939291908181526020018383808284378201915050505050509192919290803590602001908201803590602001908080601f01602080910402602001604051908101604052809392919081815260200183838082843782019150505050505091929192905050506108c0565b005b34801561049e57600080fd5b506104dd600480360381019080803573ffffffffffffffffffffffffffffffffffffffff1690602001909291908035906020019092919050505061097a565b604051808273ffffffffffffffffffffffffffffffffffffffff1673ffffffffffffffffffffffffffffffffffffffff16815260200191505060405180910390f35b6001602052806000526040600020600091509050806000018054600181600116156101000203166002900480601f0160208091040260200160405190810160405280929190818152602001828054600181600116156101000203166002900480156105cb5780601f106105a0576101008083540402835291602001916105cb565b820191906000526020600020905b8154815290600101906020018083116105ae57829003601f168201915b505050505090806001018054600181600116156101000203166002900480601f0160208091040260200160405190810160405280929190818152602001828054600181600116156101000203166002900480156106695780601f1061063e57610100808354040283529160200191610669565b820191906000526020600020905b81548152906001019060200180831161064c57829003601f168201915b5050505050905082565b6002602052806000526040600020600091509050806000018054600181600116156101000203166002900480601f01602080910402602001604051908101604052809291908181526020018280546001816001161561010002031660029004801561071f5780601f106106f45761010080835404028352916020019161071f565b820191906000526020600020905b81548152906001019060200180831161070257829003601f168201915b5050505050905081565b6000600160008373ffffffffffffffffffffffffffffffffffffffff1673ffffffffffffffffffffffffffffffffffffffff168152602001908152602001600020600201805490509050919050565b6107806109fe565b600082826000018190525081600260008773ffffffffffffffffffffffffffffffffffffffff1673ffffffffffffffffffffffffffffffffffffffff16815260200190815260200160002060008201518160000190805190602001906107e7929190610a12565b50905050600160008573ffffffffffffffffffffffffffffffffffffffff1673ffffffffffffffffffffffffffffffffffffffff1681526020019081526020016000209050806002018590806001815401808255809150509060018203906000526020600020016000909192909190916101000a81548173ffffffffffffffffffffffffffffffffffffffff021916908373ffffffffffffffffffffffffffffffffffffffff160217905550505050505050565b6000809054906101000a900473ffffffffffffffffffffffffffffffffffffffff1681565b6108c8610a92565b82816000018190525081816020018190525080600160008673ffffffffffffffffffffffffffffffffffffffff1673ffffffffffffffffffffffffffffffffffffffff1681526020019081526020016000206000820151816000019080519060200190610936929190610a12565b506020820151816001019080519060200190610953929190610a12565b506040820151816002019080519060200190610970929190610ab4565b5090505050505050565b6000600160008473ffffffffffffffffffffffffffffffffffffffff1673ffffffffffffffffffffffffffffffffffffffff168152602001908152602001600020600201828154811015156109cb57fe5b9060005260206000200160009054906101000a900473ffffffffffffffffffffffffffffffffffffffff16905092915050565b602060405190810160405280606081525090565b828054600181600116156101000203166002900490600052602060002090601f016020900481019282601f10610a5357805160ff1916838001178555610a81565b82800160010185558215610a81579182015b82811115610a80578251825591602001919060010190610a65565b5b509050610a8e9190610b3e565b5090565b6060604051908101604052806060815260200160608152602001606081525090565b828054828255906000526020600020908101928215610b2d579160200282015b82811115610b2c5782518260006101000a81548173ffffffffffffffffffffffffffffffffffffffff021916908373ffffffffffffffffffffffffffffffffffffffff16021790555091602001919060010190610ad4565b5b509050610b3a9190610b63565b5090565b610b6091905b80821115610b5c576000816000905550600101610b44565b5090565b90565b610ba391905b80821115610b9f57600081816101000a81549073ffffffffffffffffffffffffffffffffffffffff021916905550600101610b69565b5090565b905600a165627a7a72305820c3d6f1b185420c52830a46fa7fd6f7c124313ea29ab8e23cb777d96d549bfc170029",
    "source": "pragma solidity ^0.4.23;\n\ncontract Malaysia {\n    \n    address public owner;\n\n    struct State {\n        string name;\n        string kings_name;\n        address[] districtArray;\n    }\n\n    mapping (address => State) public states;\n\n    struct District {\n        string name;\n    }\n\n    mapping (address => District) public districts;\n\n    constructor() public {\n        owner = msg.sender;\n    }\n    \n    function addState(address _state_address, string _name, string _kings_name) public {\n        // creating a temp struct first\n        State memory newState;\n        newState.name = _name;\n        newState.kings_name = _kings_name;\n\n        // saving struct into the `states` mapping\n        states[_state_address] = newState;\n    }\n\n    function addDistrict(address _district_address, address _state_address, string _name) public {\n        // creating a temp struct first\n        District memory newDistrict;\n        newDistrict.name = _name;\n\n        // saving struct into the `districts` mapping\n        districts[_district_address] = newDistrict;\n\n        State storage _state = states[_state_address];\n        _state.districtArray.push(_district_address);\n    }\n\n    function getDestrictLength(address _state_address) public view returns (uint256) {\n        return states[_state_address].districtArray.length;\n    }\n\n    function getDestrict(address _state_address, uint256 _index) public view returns (address) {\n        return states[_state_address].districtArray[_index];\n    }\n\n}\n",
    "sourcePath": "/Users/zulhilmi/projects/dappathon_demo/contracts/Malaysia.sol",
    "compiler": {
        "name": "solc",
        "version": "0.4.24+commit.e67f0147.Emscripten.clang"
    },
    "schemaVersion": "2.0.1",
    "updatedAt": "2018-08-18T13:39:08.948Z"
}